{
  "_format": "hh-sol-artifact-1",
  "contractName": "Voucher",
  "sourceName": "smart_contract/contracts/Voucher.sol",
  "abi": [
    {
      "inputs": [],
      "name": "NotFoundError",
      "type": "error"
    },
    {
      "inputs": [
        {
          "internalType": "string",
          "name": "_id",
          "type": "string"
        },
        {
          "internalType": "string",
          "name": "_hash",
          "type": "string"
        },
        {
          "internalType": "uint256",
          "name": "_expire_date",
          "type": "uint256"
        },
        {
          "internalType": "contract IERC20",
          "name": "_token_contract",
          "type": "address"
        },
        {
          "internalType": "uint256",
          "name": "_amount",
          "type": "uint256"
        }
      ],
      "name": "addTokenVoucher",
      "outputs": [],
      "stateMutability": "payable",
      "type": "function"
    },
    {
      "inputs": [
        {
          "internalType": "string",
          "name": "_id",
          "type": "string"
        },
        {
          "internalType": "string",
          "name": "_hash",
          "type": "string"
        },
        {
          "internalType": "uint256",
          "name": "_expire_date",
          "type": "uint256"
        }
      ],
      "name": "addVoucher",
      "outputs": [],
      "stateMutability": "payable",
      "type": "function"
    },
    {
      "inputs": [
        {
          "internalType": "uint256",
          "name": "",
          "type": "uint256"
        }
      ],
      "name": "allVouchers",
      "outputs": [
        {
          "internalType": "string",
          "name": "id",
          "type": "string"
        },
        {
          "internalType": "address",
          "name": "owner",
          "type": "address"
        },
        {
          "internalType": "string",
          "name": "hash",
          "type": "string"
        },
        {
          "internalType": "uint256",
          "name": "amount",
          "type": "uint256"
        },
        {
          "internalType": "address",
          "name": "used_by",
          "type": "address"
        },
        {
          "internalType": "uint256",
          "name": "paid_amount",
          "type": "uint256"
        },
        {
          "internalType": "uint256",
          "name": "created_date",
          "type": "uint256"
        },
        {
          "internalType": "uint256",
          "name": "expire_date",
          "type": "uint256"
        },
        {
          "internalType": "contract IERC20",
          "name": "token_contract",
          "type": "address"
        }
      ],
      "stateMutability": "view",
      "type": "function"
    },
    {
      "inputs": [
        {
          "internalType": "string",
          "name": "_id",
          "type": "string"
        },
        {
          "internalType": "string",
          "name": "_hash",
          "type": "string"
        }
      ],
      "name": "claim",
      "outputs": [],
      "stateMutability": "nonpayable",
      "type": "function"
    },
    {
      "inputs": [
        {
          "internalType": "string",
          "name": "_id",
          "type": "string"
        }
      ],
      "name": "deleteVoucher",
      "outputs": [],
      "stateMutability": "nonpayable",
      "type": "function"
    },
    {
      "inputs": [],
      "name": "getWalletVouchers",
      "outputs": [
        {
          "components": [
            {
              "internalType": "string",
              "name": "id",
              "type": "string"
            },
            {
              "internalType": "address",
              "name": "owner",
              "type": "address"
            },
            {
              "internalType": "string",
              "name": "hash",
              "type": "string"
            },
            {
              "internalType": "uint256",
              "name": "amount",
              "type": "uint256"
            },
            {
              "internalType": "address",
              "name": "used_by",
              "type": "address"
            },
            {
              "internalType": "uint256",
              "name": "paid_amount",
              "type": "uint256"
            },
            {
              "internalType": "uint256",
              "name": "created_date",
              "type": "uint256"
            },
            {
              "internalType": "uint256",
              "name": "expire_date",
              "type": "uint256"
            },
            {
              "internalType": "contract IERC20",
              "name": "token_contract",
              "type": "address"
            }
          ],
          "internalType": "struct Voucher.VouchersStruct[]",
          "name": "",
          "type": "tuple[]"
        }
      ],
      "stateMutability": "view",
      "type": "function"
    },
    {
      "inputs": [
        {
          "internalType": "address",
          "name": "",
          "type": "address"
        },
        {
          "internalType": "uint256",
          "name": "",
          "type": "uint256"
        }
      ],
      "name": "userVouchers",
      "outputs": [
        {
          "internalType": "string",
          "name": "id",
          "type": "string"
        },
        {
          "internalType": "address",
          "name": "owner",
          "type": "address"
        },
        {
          "internalType": "string",
          "name": "hash",
          "type": "string"
        },
        {
          "internalType": "uint256",
          "name": "amount",
          "type": "uint256"
        },
        {
          "internalType": "address",
          "name": "used_by",
          "type": "address"
        },
        {
          "internalType": "uint256",
          "name": "paid_amount",
          "type": "uint256"
        },
        {
          "internalType": "uint256",
          "name": "created_date",
          "type": "uint256"
        },
        {
          "internalType": "uint256",
          "name": "expire_date",
          "type": "uint256"
        },
        {
          "internalType": "contract IERC20",
          "name": "token_contract",
          "type": "address"
        }
      ],
      "stateMutability": "view",
      "type": "function"
    },
    {
      "inputs": [
        {
          "internalType": "string",
          "name": "_id",
          "type": "string"
        }
      ],
      "name": "voucherById",
      "outputs": [
        {
          "components": [
            {
              "internalType": "string",
              "name": "id",
              "type": "string"
            },
            {
              "internalType": "address",
              "name": "owner",
              "type": "address"
            },
            {
              "internalType": "string",
              "name": "hash",
              "type": "string"
            },
            {
              "internalType": "uint256",
              "name": "amount",
              "type": "uint256"
            },
            {
              "internalType": "address",
              "name": "used_by",
              "type": "address"
            },
            {
              "internalType": "uint256",
              "name": "paid_amount",
              "type": "uint256"
            },
            {
              "internalType": "uint256",
              "name": "created_date",
              "type": "uint256"
            },
            {
              "internalType": "uint256",
              "name": "expire_date",
              "type": "uint256"
            },
            {
              "internalType": "contract IERC20",
              "name": "token_contract",
              "type": "address"
            }
          ],
          "internalType": "struct Voucher.VouchersStruct",
          "name": "",
          "type": "tuple"
        }
      ],
      "stateMutability": "view",
      "type": "function"
    }
  ],
  "bytecode": "0x608060405234801561001057600080fd5b506156e780620000216000396000f3fe60806040526004361061007b5760003560e01c8063735e8eb51161004e578063735e8eb514610128578063c43538ea14610151578063cb6ab5d81461018e578063f91ce77e146101b75761007b565b80630d7ee9b614610080578063240d1bb81461009c57806327ca4df1146100c75780632dbaada11461010c575b600080fd5b61009a6004803603810190610095919061473c565b6101fc565b005b3480156100a857600080fd5b506100b1610916565b6040516100be9190614a8c565b60405180910390f35b3480156100d357600080fd5b506100ee60048036038101906100e99190614aae565b610c00565b60405161010399989796959493929190614b52565b60405180910390f35b61012660048036038101906101219190614c2b565b610dce565b005b34801561013457600080fd5b5061014f600480360381019061014a9190614cde565b61156f565b005b34801561015d57600080fd5b5061017860048036038101906101739190614cde565b611d32565b6040516101859190614df3565b60405180910390f35b34801561019a57600080fd5b506101b560048036038101906101b09190614e15565b612273565b005b3480156101c357600080fd5b506101de60048036038101906101d99190614eb9565b612b7b565b6040516101f399989796959493929190614b52565b60405180910390f35b6000341161023f576040517f08c379a000000000000000000000000000000000000000000000000000000000815260040161023690614f45565b60405180910390fd5b60006104f1846001805480602002602001604051908101604052809291908181526020016000905b828210156104e857838290600052602060002090600902016040518061012001604052908160008201805461029b90614f94565b80601f01602080910402602001604051908101604052809291908181526020018280546102c790614f94565b80156103145780601f106102e957610100808354040283529160200191610314565b820191906000526020600020905b8154815290600101906020018083116102f757829003601f168201915b505050505081526020016001820160009054906101000a900473ffffffffffffffffffffffffffffffffffffffff1673ffffffffffffffffffffffffffffffffffffffff1673ffffffffffffffffffffffffffffffffffffffff16815260200160028201805461038390614f94565b80601f01602080910402602001604051908101604052809291908181526020018280546103af90614f94565b80156103fc5780601f106103d1576101008083540402835291602001916103fc565b820191906000526020600020905b8154815290600101906020018083116103df57829003601f168201915b50505050508152602001600382015481526020016004820160009054906101000a900473ffffffffffffffffffffffffffffffffffffffff1673ffffffffffffffffffffffffffffffffffffffff1673ffffffffffffffffffffffffffffffffffffffff1681526020016005820154815260200160068201548152602001600782015481526020016008820160009054906101000a900473ffffffffffffffffffffffffffffffffffffffff1673ffffffffffffffffffffffffffffffffffffffff1673ffffffffffffffffffffffffffffffffffffffff168152505081526020019060010190610267565b50505050612d56565b9150508015610535576040517f08c379a000000000000000000000000000000000000000000000000000000000815260040161052c90615012565b60405180910390fd5b61053e82612e4f565b1561057e576040517f08c379a00000000000000000000000000000000000000000000000000000000081526004016105759061507e565b60405180910390fd5b60006040518061012001604052808681526020013373ffffffffffffffffffffffffffffffffffffffff168152602001858152602001348152602001600073ffffffffffffffffffffffffffffffffffffffff16815260200160008152602001428152602001848152602001600073ffffffffffffffffffffffffffffffffffffffff1681525090506001819080600181540180825580915050600190039060005260206000209060090201600090919091909150600082015181600001908051906020019061064f9291906143ae565b5060208201518160010160006101000a81548173ffffffffffffffffffffffffffffffffffffffff021916908373ffffffffffffffffffffffffffffffffffffffff16021790555060408201518160020190805190602001906106b39291906143ae565b506060820151816003015560808201518160040160006101000a81548173ffffffffffffffffffffffffffffffffffffffff021916908373ffffffffffffffffffffffffffffffffffffffff16021790555060a0820151816005015560c0820151816006015560e082015181600701556101008201518160080160006101000a81548173ffffffffffffffffffffffffffffffffffffffff021916908373ffffffffffffffffffffffffffffffffffffffff16021790555050506000803373ffffffffffffffffffffffffffffffffffffffff1673ffffffffffffffffffffffffffffffffffffffff16815260200190815260200160002081908060018154018082558091505060019003906000526020600020906009020160009091909190915060008201518160000190805190602001906107f19291906143ae565b5060208201518160010160006101000a81548173ffffffffffffffffffffffffffffffffffffffff021916908373ffffffffffffffffffffffffffffffffffffffff16021790555060408201518160020190805190602001906108559291906143ae565b506060820151816003015560808201518160040160006101000a81548173ffffffffffffffffffffffffffffffffffffffff021916908373ffffffffffffffffffffffffffffffffffffffff16021790555060a0820151816005015560c0820151816006015560e082015181600701556101008201518160080160006101000a81548173ffffffffffffffffffffffffffffffffffffffff021916908373ffffffffffffffffffffffffffffffffffffffff16021790555050505050505050565b60606000803373ffffffffffffffffffffffffffffffffffffffff1673ffffffffffffffffffffffffffffffffffffffff168152602001908152602001600020805480602002602001604051908101604052809291908181526020016000905b82821015610bf75783829060005260206000209060090201604051806101200160405290816000820180546109aa90614f94565b80601f01602080910402602001604051908101604052809291908181526020018280546109d690614f94565b8015610a235780601f106109f857610100808354040283529160200191610a23565b820191906000526020600020905b815481529060010190602001808311610a0657829003601f168201915b505050505081526020016001820160009054906101000a900473ffffffffffffffffffffffffffffffffffffffff1673ffffffffffffffffffffffffffffffffffffffff1673ffffffffffffffffffffffffffffffffffffffff168152602001600282018054610a9290614f94565b80601f0160208091040260200160405190810160405280929190818152602001828054610abe90614f94565b8015610b0b5780601f10610ae057610100808354040283529160200191610b0b565b820191906000526020600020905b815481529060010190602001808311610aee57829003601f168201915b50505050508152602001600382015481526020016004820160009054906101000a900473ffffffffffffffffffffffffffffffffffffffff1673ffffffffffffffffffffffffffffffffffffffff1673ffffffffffffffffffffffffffffffffffffffff1681526020016005820154815260200160068201548152602001600782015481526020016008820160009054906101000a900473ffffffffffffffffffffffffffffffffffffffff1673ffffffffffffffffffffffffffffffffffffffff1673ffffffffffffffffffffffffffffffffffffffff168152505081526020019060010190610976565b50505050905090565b60018181548110610c1057600080fd5b9060005260206000209060090201600091509050806000018054610c3390614f94565b80601f0160208091040260200160405190810160405280929190818152602001828054610c5f90614f94565b8015610cac5780601f10610c8157610100808354040283529160200191610cac565b820191906000526020600020905b815481529060010190602001808311610c8f57829003601f168201915b5050505050908060010160009054906101000a900473ffffffffffffffffffffffffffffffffffffffff1690806002018054610ce790614f94565b80601f0160208091040260200160405190810160405280929190818152602001828054610d1390614f94565b8015610d605780601f10610d3557610100808354040283529160200191610d60565b820191906000526020600020905b815481529060010190602001808311610d4357829003601f168201915b5050505050908060030154908060040160009054906101000a900473ffffffffffffffffffffffffffffffffffffffff16908060050154908060060154908060070154908060080160009054906101000a900473ffffffffffffffffffffffffffffffffffffffff16905089565b60008111610e11576040517f08c379a0000000000000000000000000000000000000000000000000000000008152600401610e0890614f45565b60405180910390fd5b60006110c3866001805480602002602001604051908101604052809291908181526020016000905b828210156110ba578382906000526020600020906009020160405180610120016040529081600082018054610e6d90614f94565b80601f0160208091040260200160405190810160405280929190818152602001828054610e9990614f94565b8015610ee65780601f10610ebb57610100808354040283529160200191610ee6565b820191906000526020600020905b815481529060010190602001808311610ec957829003601f168201915b505050505081526020016001820160009054906101000a900473ffffffffffffffffffffffffffffffffffffffff1673ffffffffffffffffffffffffffffffffffffffff1673ffffffffffffffffffffffffffffffffffffffff168152602001600282018054610f5590614f94565b80601f0160208091040260200160405190810160405280929190818152602001828054610f8190614f94565b8015610fce5780601f10610fa357610100808354040283529160200191610fce565b820191906000526020600020905b815481529060010190602001808311610fb157829003601f168201915b50505050508152602001600382015481526020016004820160009054906101000a900473ffffffffffffffffffffffffffffffffffffffff1673ffffffffffffffffffffffffffffffffffffffff1673ffffffffffffffffffffffffffffffffffffffff1681526020016005820154815260200160068201548152602001600782015481526020016008820160009054906101000a900473ffffffffffffffffffffffffffffffffffffffff1673ffffffffffffffffffffffffffffffffffffffff1673ffffffffffffffffffffffffffffffffffffffff168152505081526020019060010190610e39565b50505050612d56565b9150508015611107576040517f08c379a00000000000000000000000000000000000000000000000000000000081526004016110fe90615012565b60405180910390fd5b61111084612e4f565b15611150576040517f08c379a00000000000000000000000000000000000000000000000000000000081526004016111479061507e565b60405180910390fd5b8273ffffffffffffffffffffffffffffffffffffffff166323b872dd3330856040518463ffffffff1660e01b815260040161118d9392919061509e565b6020604051808303816000875af11580156111ac573d6000803e3d6000fd5b505050506040513d601f19601f820116820180604052508101906111d0919061510d565b156115675760006040518061012001604052808881526020013373ffffffffffffffffffffffffffffffffffffffff168152602001878152602001848152602001600073ffffffffffffffffffffffffffffffffffffffff168152602001600081526020014281526020018681526020018573ffffffffffffffffffffffffffffffffffffffff168152509050600181908060018154018082558091505060019003906000526020600020906009020160009091909190915060008201518160000190805190602001906112a59291906143ae565b5060208201518160010160006101000a81548173ffffffffffffffffffffffffffffffffffffffff021916908373ffffffffffffffffffffffffffffffffffffffff16021790555060408201518160020190805190602001906113099291906143ae565b506060820151816003015560808201518160040160006101000a81548173ffffffffffffffffffffffffffffffffffffffff021916908373ffffffffffffffffffffffffffffffffffffffff16021790555060a0820151816005015560c0820151816006015560e082015181600701556101008201518160080160006101000a81548173ffffffffffffffffffffffffffffffffffffffff021916908373ffffffffffffffffffffffffffffffffffffffff16021790555050506000803373ffffffffffffffffffffffffffffffffffffffff1673ffffffffffffffffffffffffffffffffffffffff16815260200190815260200160002081908060018154018082558091505060019003906000526020600020906009020160009091909190915060008201518160000190805190602001906114479291906143ae565b5060208201518160010160006101000a81548173ffffffffffffffffffffffffffffffffffffffff021916908373ffffffffffffffffffffffffffffffffffffffff16021790555060408201518160020190805190602001906114ab9291906143ae565b506060820151816003015560808201518160040160006101000a81548173ffffffffffffffffffffffffffffffffffffffff021916908373ffffffffffffffffffffffffffffffffffffffff16021790555060a0820151816005015560c0820151816006015560e082015181600701556101008201518160080160006101000a81548173ffffffffffffffffffffffffffffffffffffffff021916908373ffffffffffffffffffffffffffffffffffffffff1602179055505050505b505050505050565b600080611822836001805480602002602001604051908101604052809291908181526020016000905b828210156118195783829060005260206000209060090201604051806101200160405290816000820180546115cc90614f94565b80601f01602080910402602001604051908101604052809291908181526020018280546115f890614f94565b80156116455780601f1061161a57610100808354040283529160200191611645565b820191906000526020600020905b81548152906001019060200180831161162857829003601f168201915b505050505081526020016001820160009054906101000a900473ffffffffffffffffffffffffffffffffffffffff1673ffffffffffffffffffffffffffffffffffffffff1673ffffffffffffffffffffffffffffffffffffffff1681526020016002820180546116b490614f94565b80601f01602080910402602001604051908101604052809291908181526020018280546116e090614f94565b801561172d5780601f106117025761010080835404028352916020019161172d565b820191906000526020600020905b81548152906001019060200180831161171057829003601f168201915b50505050508152602001600382015481526020016004820160009054906101000a900473ffffffffffffffffffffffffffffffffffffffff1673ffffffffffffffffffffffffffffffffffffffff1673ffffffffffffffffffffffffffffffffffffffff1681526020016005820154815260200160068201548152602001600782015481526020016008820160009054906101000a900473ffffffffffffffffffffffffffffffffffffffff1673ffffffffffffffffffffffffffffffffffffffff1673ffffffffffffffffffffffffffffffffffffffff168152505081526020019060010190611598565b50505050612d56565b9150915080611866576040517f08c379a000000000000000000000000000000000000000000000000000000000815260040161185d90615186565b60405180910390fd5b3373ffffffffffffffffffffffffffffffffffffffff1660018381548110611891576118906151a6565b5b906000526020600020906009020160010160009054906101000a900473ffffffffffffffffffffffffffffffffffffffff1673ffffffffffffffffffffffffffffffffffffffff1614611919576040517f08c379a000000000000000000000000000000000000000000000000000000000815260040161191090615221565b60405180910390fd5b60006001838154811061192f5761192e6151a6565b5b90600052602060002090600902016040518061012001604052908160008201805461195990614f94565b80601f016020809104026020016040519081016040528092919081815260200182805461198590614f94565b80156119d25780601f106119a7576101008083540402835291602001916119d2565b820191906000526020600020905b8154815290600101906020018083116119b557829003601f168201915b505050505081526020016001820160009054906101000a900473ffffffffffffffffffffffffffffffffffffffff1673ffffffffffffffffffffffffffffffffffffffff1673ffffffffffffffffffffffffffffffffffffffff168152602001600282018054611a4190614f94565b80601f0160208091040260200160405190810160405280929190818152602001828054611a6d90614f94565b8015611aba5780601f10611a8f57610100808354040283529160200191611aba565b820191906000526020600020905b815481529060010190602001808311611a9d57829003601f168201915b50505050508152602001600382015481526020016004820160009054906101000a900473ffffffffffffffffffffffffffffffffffffffff1673ffffffffffffffffffffffffffffffffffffffff1673ffffffffffffffffffffffffffffffffffffffff1681526020016005820154815260200160068201548152602001600782015481526020016008820160009054906101000a900473ffffffffffffffffffffffffffffffffffffffff1673ffffffffffffffffffffffffffffffffffffffff1673ffffffffffffffffffffffffffffffffffffffff16815250509050600073ffffffffffffffffffffffffffffffffffffffff16816080015173ffffffffffffffffffffffffffffffffffffffff16148015611bdd575060008160a00151145b15611d2c57600073ffffffffffffffffffffffffffffffffffffffff1681610100015173ffffffffffffffffffffffffffffffffffffffff161415611c8d573373ffffffffffffffffffffffffffffffffffffffff166108fc60018581548110611c4a57611c496151a6565b5b9060005260206000209060090201600301549081150290604051600060405180830381858888f19350505050158015611c87573d6000803e3d6000fd5b50611d16565b80610100015173ffffffffffffffffffffffffffffffffffffffff1663a9059cbb3383606001516040518363ffffffff1660e01b8152600401611cd1929190615262565b6020604051808303816000875af1158015611cf0573d6000803e3d6000fd5b505050506040513d601f19601f82011682018060405250810190611d14919061510d565b505b611d208433612e5c565b50611d2a84613534565b505b50505050565b611d3a614434565b6000611fec836001805480602002602001604051908101604052809291908181526020016000905b82821015611fe3578382906000526020600020906009020160405180610120016040529081600082018054611d9690614f94565b80601f0160208091040260200160405190810160405280929190818152602001828054611dc290614f94565b8015611e0f5780601f10611de457610100808354040283529160200191611e0f565b820191906000526020600020905b815481529060010190602001808311611df257829003601f168201915b505050505081526020016001820160009054906101000a900473ffffffffffffffffffffffffffffffffffffffff1673ffffffffffffffffffffffffffffffffffffffff1673ffffffffffffffffffffffffffffffffffffffff168152602001600282018054611e7e90614f94565b80601f0160208091040260200160405190810160405280929190818152602001828054611eaa90614f94565b8015611ef75780601f10611ecc57610100808354040283529160200191611ef7565b820191906000526020600020905b815481529060010190602001808311611eda57829003601f168201915b50505050508152602001600382015481526020016004820160009054906101000a900473ffffffffffffffffffffffffffffffffffffffff1673ffffffffffffffffffffffffffffffffffffffff1673ffffffffffffffffffffffffffffffffffffffff1681526020016005820154815260200160068201548152602001600782015481526020016008820160009054906101000a900473ffffffffffffffffffffffffffffffffffffffff1673ffffffffffffffffffffffffffffffffffffffff1673ffffffffffffffffffffffffffffffffffffffff168152505081526020019060010190611d62565b50505050612d56565b50905060018181548110612003576120026151a6565b5b90600052602060002090600902016040518061012001604052908160008201805461202d90614f94565b80601f016020809104026020016040519081016040528092919081815260200182805461205990614f94565b80156120a65780601f1061207b576101008083540402835291602001916120a6565b820191906000526020600020905b81548152906001019060200180831161208957829003601f168201915b505050505081526020016001820160009054906101000a900473ffffffffffffffffffffffffffffffffffffffff1673ffffffffffffffffffffffffffffffffffffffff1673ffffffffffffffffffffffffffffffffffffffff16815260200160028201805461211590614f94565b80601f016020809104026020016040519081016040528092919081815260200182805461214190614f94565b801561218e5780601f106121635761010080835404028352916020019161218e565b820191906000526020600020905b81548152906001019060200180831161217157829003601f168201915b50505050508152602001600382015481526020016004820160009054906101000a900473ffffffffffffffffffffffffffffffffffffffff1673ffffffffffffffffffffffffffffffffffffffff1673ffffffffffffffffffffffffffffffffffffffff1681526020016005820154815260200160068201548152602001600782015481526020016008820160009054906101000a900473ffffffffffffffffffffffffffffffffffffffff1673ffffffffffffffffffffffffffffffffffffffff1673ffffffffffffffffffffffffffffffffffffffff1681525050915050919050565b600080612526846001805480602002602001604051908101604052809291908181526020016000905b8282101561251d5783829060005260206000209060090201604051806101200160405290816000820180546122d090614f94565b80601f01602080910402602001604051908101604052809291908181526020018280546122fc90614f94565b80156123495780601f1061231e57610100808354040283529160200191612349565b820191906000526020600020905b81548152906001019060200180831161232c57829003601f168201915b505050505081526020016001820160009054906101000a900473ffffffffffffffffffffffffffffffffffffffff1673ffffffffffffffffffffffffffffffffffffffff1673ffffffffffffffffffffffffffffffffffffffff1681526020016002820180546123b890614f94565b80601f01602080910402602001604051908101604052809291908181526020018280546123e490614f94565b80156124315780601f1061240657610100808354040283529160200191612431565b820191906000526020600020905b81548152906001019060200180831161241457829003601f168201915b50505050508152602001600382015481526020016004820160009054906101000a900473ffffffffffffffffffffffffffffffffffffffff1673ffffffffffffffffffffffffffffffffffffffff1673ffffffffffffffffffffffffffffffffffffffff1681526020016005820154815260200160068201548152602001600782015481526020016008820160009054906101000a900473ffffffffffffffffffffffffffffffffffffffff1673ffffffffffffffffffffffffffffffffffffffff1673ffffffffffffffffffffffffffffffffffffffff16815250508152602001906001019061229c565b50505050612d56565b915091506000600183815481106125405761253f6151a6565b5b9060005260206000209060090201905060006125af60028660405161256591906152d2565b602060405180830381855afa158015612582573d6000803e3d6000fd5b5050506040513d601f19601f820116820180604052508101906125a5919061531f565b60001c6020613add565b9050828015612650575061264f818360020180546125cc90614f94565b80601f01602080910402602001604051908101604052809291908181526020018280546125f890614f94565b80156126455780601f1061261a57610100808354040283529160200191612645565b820191906000526020600020905b81548152906001019060200180831161262857829003601f168201915b5050505050613d19565b5b61268f576040517f08c379a000000000000000000000000000000000000000000000000000000000815260040161268690615398565b60405180910390fd5b600073ffffffffffffffffffffffffffffffffffffffff168260040160009054906101000a900473ffffffffffffffffffffffffffffffffffffffff1673ffffffffffffffffffffffffffffffffffffffff1614612722576040517f08c379a000000000000000000000000000000000000000000000000000000000815260040161271990615404565b60405180910390fd5b61272f8260070154612e4f565b1561276f576040517f08c379a000000000000000000000000000000000000000000000000000000000815260040161276690615470565b60405180910390fd5b600073ffffffffffffffffffffffffffffffffffffffff168260080160009054906101000a900473ffffffffffffffffffffffffffffffffffffffff1673ffffffffffffffffffffffffffffffffffffffff161415612818573373ffffffffffffffffffffffffffffffffffffffff166108fc83600301549081150290604051600060405180830381858888f19350505050158015612812573d6000803e3d6000fd5b506128c0565b8160080160009054906101000a900473ffffffffffffffffffffffffffffffffffffffff1673ffffffffffffffffffffffffffffffffffffffff1663a9059cbb3384600301546040518363ffffffff1660e01b815260040161287b929190615262565b6020604051808303816000875af115801561289a573d6000803e3d6000fd5b505050506040513d601f19601f820116820180604052508101906128be919061510d565b505b338260040160006101000a81548173ffffffffffffffffffffffffffffffffffffffff021916908373ffffffffffffffffffffffffffffffffffffffff16021790555081600301548260050181905550612b73826040518061012001604052908160008201805461293090614f94565b80601f016020809104026020016040519081016040528092919081815260200182805461295c90614f94565b80156129a95780601f1061297e576101008083540402835291602001916129a9565b820191906000526020600020905b81548152906001019060200180831161298c57829003601f168201915b505050505081526020016001820160009054906101000a900473ffffffffffffffffffffffffffffffffffffffff1673ffffffffffffffffffffffffffffffffffffffff1673ffffffffffffffffffffffffffffffffffffffff168152602001600282018054612a1890614f94565b80601f0160208091040260200160405190810160405280929190818152602001828054612a4490614f94565b8015612a915780601f10612a6657610100808354040283529160200191612a91565b820191906000526020600020905b815481529060010190602001808311612a7457829003601f168201915b50505050508152602001600382015481526020016004820160009054906101000a900473ffffffffffffffffffffffffffffffffffffffff1673ffffffffffffffffffffffffffffffffffffffff1673ffffffffffffffffffffffffffffffffffffffff1681526020016005820154815260200160068201548152602001600782015481526020016008820160009054906101000a900473ffffffffffffffffffffffffffffffffffffffff1673ffffffffffffffffffffffffffffffffffffffff1673ffffffffffffffffffffffffffffffffffffffff1681525050613d2f565b505050505050565b60006020528160005260406000208181548110612b9757600080fd5b906000526020600020906009020160009150915050806000018054612bbb90614f94565b80601f0160208091040260200160405190810160405280929190818152602001828054612be790614f94565b8015612c345780601f10612c0957610100808354040283529160200191612c34565b820191906000526020600020905b815481529060010190602001808311612c1757829003601f168201915b5050505050908060010160009054906101000a900473ffffffffffffffffffffffffffffffffffffffff1690806002018054612c6f90614f94565b80601f0160208091040260200160405190810160405280929190818152602001828054612c9b90614f94565b8015612ce85780601f10612cbd57610100808354040283529160200191612ce8565b820191906000526020600020905b815481529060010190602001808311612ccb57829003601f168201915b5050505050908060030154908060040160009054906101000a900473ffffffffffffffffffffffffffffffffffffffff16908060050154908060060154908060070154908060080160009054906101000a900473ffffffffffffffffffffffffffffffffffffffff16905089565b60008060005b8351811015612e3f57612e1c60018281548110612d7c57612d7b6151a6565b5b90600052602060002090600902016000018054612d9890614f94565b80601f0160208091040260200160405190810160405280929190818152602001828054612dc490614f94565b8015612e115780601f10612de657610100808354040283529160200191612e11565b820191906000526020600020905b815481529060010190602001808311612df457829003601f168201915b505050505086613d19565b15612e2e578060019250925050612e48565b80612e38906154bf565b9050612d5c565b50600080915091505b9250929050565b6000814210159050919050565b600080600061314d856000808773ffffffffffffffffffffffffffffffffffffffff1673ffffffffffffffffffffffffffffffffffffffff168152602001908152602001600020805480602002602001604051908101604052809291908181526020016000905b82821015613144578382906000526020600020906009020160405180610120016040529081600082018054612ef790614f94565b80601f0160208091040260200160405190810160405280929190818152602001828054612f2390614f94565b8015612f705780601f10612f4557610100808354040283529160200191612f70565b820191906000526020600020905b815481529060010190602001808311612f5357829003601f168201915b505050505081526020016001820160009054906101000a900473ffffffffffffffffffffffffffffffffffffffff1673ffffffffffffffffffffffffffffffffffffffff1673ffffffffffffffffffffffffffffffffffffffff168152602001600282018054612fdf90614f94565b80601f016020809104026020016040519081016040528092919081815260200182805461300b90614f94565b80156130585780601f1061302d57610100808354040283529160200191613058565b820191906000526020600020905b81548152906001019060200180831161303b57829003601f168201915b50505050508152602001600382015481526020016004820160009054906101000a900473ffffffffffffffffffffffffffffffffffffffff1673ffffffffffffffffffffffffffffffffffffffff1673ffffffffffffffffffffffffffffffffffffffff1681526020016005820154815260200160068201548152602001600782015481526020016008820160009054906101000a900473ffffffffffffffffffffffffffffffffffffffff1673ffffffffffffffffffffffffffffffffffffffff1673ffffffffffffffffffffffffffffffffffffffff168152505081526020019060010190612ec3565b50505050612d56565b915091508015613527576000808573ffffffffffffffffffffffffffffffffffffffff1673ffffffffffffffffffffffffffffffffffffffff16815260200190815260200160002060016000808773ffffffffffffffffffffffffffffffffffffffff1673ffffffffffffffffffffffffffffffffffffffff168152602001908152602001600020805490506131e39190615508565b815481106131f4576131f36151a6565b5b90600052602060002090600902016000808673ffffffffffffffffffffffffffffffffffffffff1673ffffffffffffffffffffffffffffffffffffffff1681526020019081526020016000208381548110613252576132516151a6565b5b9060005260206000209060090201600082018160000190805461327490614f94565b61327f9291906144c2565b506001820160009054906101000a900473ffffffffffffffffffffffffffffffffffffffff168160010160006101000a81548173ffffffffffffffffffffffffffffffffffffffff021916908373ffffffffffffffffffffffffffffffffffffffff16021790555060028201816002019080546132fb90614f94565b6133069291906144c2565b50600382015481600301556004820160009054906101000a900473ffffffffffffffffffffffffffffffffffffffff168160040160006101000a81548173ffffffffffffffffffffffffffffffffffffffff021916908373ffffffffffffffffffffffffffffffffffffffff1602179055506005820154816005015560068201548160060155600782015481600701556008820160009054906101000a900473ffffffffffffffffffffffffffffffffffffffff168160080160006101000a81548173ffffffffffffffffffffffffffffffffffffffff021916908373ffffffffffffffffffffffffffffffffffffffff1602179055509050506000808573ffffffffffffffffffffffffffffffffffffffff1673ffffffffffffffffffffffffffffffffffffffff16815260200190815260200160002080548061344e5761344d61553c565b5b600190038181906000526020600020906009020160008082016000613473919061454f565b6001820160006101000a81549073ffffffffffffffffffffffffffffffffffffffff02191690556002820160006134aa919061454f565b60038201600090556004820160006101000a81549073ffffffffffffffffffffffffffffffffffffffff02191690556005820160009055600682016000905560078201600090556008820160006101000a81549073ffffffffffffffffffffffffffffffffffffffff02191690555050905560019250505061352e565b6000925050505b92915050565b60008060006137e9846001805480602002602001604051908101604052809291908181526020016000905b828210156137e057838290600052602060002090600902016040518061012001604052908160008201805461359390614f94565b80601f01602080910402602001604051908101604052809291908181526020018280546135bf90614f94565b801561360c5780601f106135e15761010080835404028352916020019161360c565b820191906000526020600020905b8154815290600101906020018083116135ef57829003601f168201915b505050505081526020016001820160009054906101000a900473ffffffffffffffffffffffffffffffffffffffff1673ffffffffffffffffffffffffffffffffffffffff1673ffffffffffffffffffffffffffffffffffffffff16815260200160028201805461367b90614f94565b80601f01602080910402602001604051908101604052809291908181526020018280546136a790614f94565b80156136f45780601f106136c9576101008083540402835291602001916136f4565b820191906000526020600020905b8154815290600101906020018083116136d757829003601f168201915b50505050508152602001600382015481526020016004820160009054906101000a900473ffffffffffffffffffffffffffffffffffffffff1673ffffffffffffffffffffffffffffffffffffffff1673ffffffffffffffffffffffffffffffffffffffff1681526020016005820154815260200160068201548152602001600782015481526020016008820160009054906101000a900473ffffffffffffffffffffffffffffffffffffffff1673ffffffffffffffffffffffffffffffffffffffff1673ffffffffffffffffffffffffffffffffffffffff16815250508152602001906001019061355f565b50505050612d56565b915091508015613ad15760018080805490506138059190615508565b81548110613816576138156151a6565b5b906000526020600020906009020160018381548110613838576138376151a6565b5b9060005260206000209060090201600082018160000190805461385a90614f94565b6138659291906144c2565b506001820160009054906101000a900473ffffffffffffffffffffffffffffffffffffffff168160010160006101000a81548173ffffffffffffffffffffffffffffffffffffffff021916908373ffffffffffffffffffffffffffffffffffffffff16021790555060028201816002019080546138e190614f94565b6138ec9291906144c2565b50600382015481600301556004820160009054906101000a900473ffffffffffffffffffffffffffffffffffffffff168160040160006101000a81548173ffffffffffffffffffffffffffffffffffffffff021916908373ffffffffffffffffffffffffffffffffffffffff1602179055506005820154816005015560068201548160060155600782015481600701556008820160009054906101000a900473ffffffffffffffffffffffffffffffffffffffff168160080160006101000a81548173ffffffffffffffffffffffffffffffffffffffff021916908373ffffffffffffffffffffffffffffffffffffffff16021790555090505060018054806139f8576139f761553c565b5b600190038181906000526020600020906009020160008082016000613a1d919061454f565b6001820160006101000a81549073ffffffffffffffffffffffffffffffffffffffff0219169055600282016000613a54919061454f565b60038201600090556004820160006101000a81549073ffffffffffffffffffffffffffffffffffffffff02191690556005820160009055600682016000905560078201600090556008820160006101000a81549073ffffffffffffffffffffffffffffffffffffffff021916905550509055600192505050613ad8565b6000925050505b919050565b606060006002836002613af0919061556b565b613afa91906155c5565b67ffffffffffffffff811115613b1357613b126145db565b5b6040519080825280601f01601f191660200182016040528015613b455781602001600182028036833780820191505090505b5090507f300000000000000000000000000000000000000000000000000000000000000081600081518110613b7d57613b7c6151a6565b5b60200101907effffffffffffffffffffffffffffffffffffffffffffffffffffffffffffff1916908160001a9053507f780000000000000000000000000000000000000000000000000000000000000081600181518110613be157613be06151a6565b5b60200101907effffffffffffffffffffffffffffffffffffffffffffffffffffffffffffff1916908160001a90535060006001846002613c21919061556b565b613c2b91906155c5565b90505b6001811115613ccb577f3031323334353637383961626364656600000000000000000000000000000000600f861660108110613c6d57613c6c6151a6565b5b1a60f81b828281518110613c8457613c836151a6565b5b60200101907effffffffffffffffffffffffffffffffffffffffffffffffffffffffffffff1916908160001a905350600485901c945080613cc49061561b565b9050613c2e565b5060008414613d0f576040517f08c379a0000000000000000000000000000000000000000000000000000000008152600401613d0690615691565b60405180910390fd5b8091505092915050565b600080613d2684846141d4565b14905092915050565b6000806140268360000151600080866020015173ffffffffffffffffffffffffffffffffffffffff1673ffffffffffffffffffffffffffffffffffffffff168152602001908152602001600020805480602002602001604051908101604052809291908181526020016000905b8282101561401d578382906000526020600020906009020160405180610120016040529081600082018054613dd090614f94565b80601f0160208091040260200160405190810160405280929190818152602001828054613dfc90614f94565b8015613e495780601f10613e1e57610100808354040283529160200191613e49565b820191906000526020600020905b815481529060010190602001808311613e2c57829003601f168201915b505050505081526020016001820160009054906101000a900473ffffffffffffffffffffffffffffffffffffffff1673ffffffffffffffffffffffffffffffffffffffff1673ffffffffffffffffffffffffffffffffffffffff168152602001600282018054613eb890614f94565b80601f0160208091040260200160405190810160405280929190818152602001828054613ee490614f94565b8015613f315780601f10613f0657610100808354040283529160200191613f31565b820191906000526020600020905b815481529060010190602001808311613f1457829003601f168201915b50505050508152602001600382015481526020016004820160009054906101000a900473ffffffffffffffffffffffffffffffffffffffff1673ffffffffffffffffffffffffffffffffffffffff1673ffffffffffffffffffffffffffffffffffffffff1681526020016005820154815260200160068201548152602001600782015481526020016008820160009054906101000a900473ffffffffffffffffffffffffffffffffffffffff1673ffffffffffffffffffffffffffffffffffffffff1673ffffffffffffffffffffffffffffffffffffffff168152505081526020019060010190613d9c565b50505050612d56565b9150915080156141cf5782600080856020015173ffffffffffffffffffffffffffffffffffffffff1673ffffffffffffffffffffffffffffffffffffffff1681526020019081526020016000208381548110614085576140846151a6565b5b906000526020600020906009020160008201518160000190805190602001906140af9291906143ae565b5060208201518160010160006101000a81548173ffffffffffffffffffffffffffffffffffffffff021916908373ffffffffffffffffffffffffffffffffffffffff16021790555060408201518160020190805190602001906141139291906143ae565b506060820151816003015560808201518160040160006101000a81548173ffffffffffffffffffffffffffffffffffffffff021916908373ffffffffffffffffffffffffffffffffffffffff16021790555060a0820151816005015560c0820151816006015560e082015181600701556101008201518160080160006101000a81548173ffffffffffffffffffffffffffffffffffffffff021916908373ffffffffffffffffffffffffffffffffffffffff1602179055509050505b505050565b600080839050600083905060008251905080825110156141f357815190505b60005b8181101561435457828181518110614211576142106151a6565b5b602001015160f81c60f81b7effffffffffffffffffffffffffffffffffffffffffffffffffffffffffffff1916848281518110614251576142506151a6565b5b602001015160f81c60f81b7effffffffffffffffffffffffffffffffffffffffffffffffffffffffffffff191610156142b0577fffffffffffffffffffffffffffffffffffffffffffffffffffffffffffffffff9450505050506143a8565b8281815181106142c3576142c26151a6565b5b602001015160f81c60f81b7effffffffffffffffffffffffffffffffffffffffffffffffffffffffffffff1916848281518110614303576143026151a6565b5b602001015160f81c60f81b7effffffffffffffffffffffffffffffffffffffffffffffffffffffffffffff191611156143435760019450505050506143a8565b8061434d906154bf565b90506141f6565b5081518351101561438a577fffffffffffffffffffffffffffffffffffffffffffffffffffffffffffffffff93505050506143a8565b8151835111156143a057600193505050506143a8565b600093505050505b92915050565b8280546143ba90614f94565b90600052602060002090601f0160209004810192826143dc5760008555614423565b82601f106143f557805160ff1916838001178555614423565b82800160010185558215614423579182015b82811115614422578251825591602001919060010190614407565b5b509050614430919061458f565b5090565b60405180610120016040528060608152602001600073ffffffffffffffffffffffffffffffffffffffff1681526020016060815260200160008152602001600073ffffffffffffffffffffffffffffffffffffffff168152602001600081526020016000815260200160008152602001600073ffffffffffffffffffffffffffffffffffffffff1681525090565b8280546144ce90614f94565b90600052602060002090601f0160209004810192826144f0576000855561453e565b82601f10614501578054855561453e565b8280016001018555821561453e57600052602060002091601f016020900482015b8281111561453d578254825591600101919060010190614522565b5b50905061454b919061458f565b5090565b50805461455b90614f94565b6000825580601f1061456d575061458c565b601f01602090049060005260206000209081019061458b919061458f565b5b50565b5b808211156145a8576000816000905550600101614590565b5090565b6000604051905090565b600080fd5b600080fd5b600080fd5b600080fd5b6000601f19601f8301169050919050565b7f4e487b7100000000000000000000000000000000000000000000000000000000600052604160045260246000fd5b614613826145ca565b810181811067ffffffffffffffff82111715614632576146316145db565b5b80604052505050565b60006146456145ac565b9050614651828261460a565b919050565b600067ffffffffffffffff821115614671576146706145db565b5b61467a826145ca565b9050602081019050919050565b82818337600083830152505050565b60006146a96146a484614656565b61463b565b9050828152602081018484840111156146c5576146c46145c5565b5b6146d0848285614687565b509392505050565b600082601f8301126146ed576146ec6145c0565b5b81356146fd848260208601614696565b91505092915050565b6000819050919050565b61471981614706565b811461472457600080fd5b50565b60008135905061473681614710565b92915050565b600080600060608486031215614755576147546145b6565b5b600084013567ffffffffffffffff811115614773576147726145bb565b5b61477f868287016146d8565b935050602084013567ffffffffffffffff8111156147a05761479f6145bb565b5b6147ac868287016146d8565b92505060406147bd86828701614727565b9150509250925092565b600081519050919050565b600082825260208201905092915050565b6000819050602082019050919050565b600081519050919050565b600082825260208201905092915050565b60005b8381101561482d578082015181840152602081019050614812565b8381111561483c576000848401525b50505050565b600061484d826147f3565b61485781856147fe565b935061486781856020860161480f565b614870816145ca565b840191505092915050565b600073ffffffffffffffffffffffffffffffffffffffff82169050919050565b60006148a68261487b565b9050919050565b6148b68161489b565b82525050565b6148c581614706565b82525050565b6000819050919050565b60006148f06148eb6148e68461487b565b6148cb565b61487b565b9050919050565b6000614902826148d5565b9050919050565b6000614914826148f7565b9050919050565b61492481614909565b82525050565b60006101208301600083015184820360008601526149488282614842565b915050602083015161495d60208601826148ad565b50604083015184820360408601526149758282614842565b915050606083015161498a60608601826148bc565b50608083015161499d60808601826148ad565b5060a08301516149b060a08601826148bc565b5060c08301516149c360c08601826148bc565b5060e08301516149d660e08601826148bc565b506101008301516149eb61010086018261491b565b508091505092915050565b6000614a02838361492a565b905092915050565b6000602082019050919050565b6000614a22826147c7565b614a2c81856147d2565b935083602082028501614a3e856147e3565b8060005b85811015614a7a5784840389528151614a5b85826149f6565b9450614a6683614a0a565b925060208a01995050600181019050614a42565b50829750879550505050505092915050565b60006020820190508181036000830152614aa68184614a17565b905092915050565b600060208284031215614ac457614ac36145b6565b5b6000614ad284828501614727565b91505092915050565b600082825260208201905092915050565b6000614af7826147f3565b614b018185614adb565b9350614b1181856020860161480f565b614b1a816145ca565b840191505092915050565b614b2e8161489b565b82525050565b614b3d81614706565b82525050565b614b4c81614909565b82525050565b6000610120820190508181036000830152614b6d818c614aec565b9050614b7c602083018b614b25565b8181036040830152614b8e818a614aec565b9050614b9d6060830189614b34565b614baa6080830188614b25565b614bb760a0830187614b34565b614bc460c0830186614b34565b614bd160e0830185614b34565b614bdf610100830184614b43565b9a9950505050505050505050565b6000614bf88261489b565b9050919050565b614c0881614bed565b8114614c1357600080fd5b50565b600081359050614c2581614bff565b92915050565b600080600080600060a08688031215614c4757614c466145b6565b5b600086013567ffffffffffffffff811115614c6557614c646145bb565b5b614c71888289016146d8565b955050602086013567ffffffffffffffff811115614c9257614c916145bb565b5b614c9e888289016146d8565b9450506040614caf88828901614727565b9350506060614cc088828901614c16565b9250506080614cd188828901614727565b9150509295509295909350565b600060208284031215614cf457614cf36145b6565b5b600082013567ffffffffffffffff811115614d1257614d116145bb565b5b614d1e848285016146d8565b91505092915050565b6000610120830160008301518482036000860152614d458282614842565b9150506020830151614d5a60208601826148ad565b5060408301518482036040860152614d728282614842565b9150506060830151614d8760608601826148bc565b506080830151614d9a60808601826148ad565b5060a0830151614dad60a08601826148bc565b5060c0830151614dc060c08601826148bc565b5060e0830151614dd360e08601826148bc565b50610100830151614de861010086018261491b565b508091505092915050565b60006020820190508181036000830152614e0d8184614d27565b905092915050565b60008060408385031215614e2c57614e2b6145b6565b5b600083013567ffffffffffffffff811115614e4a57614e496145bb565b5b614e56858286016146d8565b925050602083013567ffffffffffffffff811115614e7757614e766145bb565b5b614e83858286016146d8565b9150509250929050565b614e968161489b565b8114614ea157600080fd5b50565b600081359050614eb381614e8d565b92915050565b60008060408385031215614ed057614ecf6145b6565b5b6000614ede85828601614ea4565b9250506020614eef85828601614727565b9150509250929050565b7f596f752073686f756c642061747461636820736f6d65204465706f7369740000600082015250565b6000614f2f601e83614adb565b9150614f3a82614ef9565b602082019050919050565b60006020820190508181036000830152614f5e81614f22565b9050919050565b7f4e487b7100000000000000000000000000000000000000000000000000000000600052602260045260246000fd5b60006002820490506001821680614fac57607f821691505b60208210811415614fc057614fbf614f65565b5b50919050565b7f566f756368657220776974682074686973206964207761732061646465640000600082015250565b6000614ffc601e83614adb565b915061500782614fc6565b602082019050919050565b6000602082019050818103600083015261502b81614fef565b9050919050565b7f57726f6e67206578706972655f64617465000000000000000000000000000000600082015250565b6000615068601183614adb565b915061507382615032565b602082019050919050565b600060208201905081810360008301526150978161505b565b9050919050565b60006060820190506150b36000830186614b25565b6150c06020830185614b25565b6150cd6040830184614b34565b949350505050565b60008115159050919050565b6150ea816150d5565b81146150f557600080fd5b50565b600081519050615107816150e1565b92915050565b600060208284031215615123576151226145b6565b5b6000615131848285016150f8565b91505092915050565b7f566f7563686572206e6f7420666f756e64000000000000000000000000000000600082015250565b6000615170601183614adb565b915061517b8261513a565b602082019050919050565b6000602082019050818103600083015261519f81615163565b9050919050565b7f4e487b7100000000000000000000000000000000000000000000000000000000600052603260045260246000fd5b7f596f7520617265206e6f7420746865206f776e65722e00000000000000000000600082015250565b600061520b601683614adb565b9150615216826151d5565b602082019050919050565b6000602082019050818103600083015261523a816151fe565b9050919050565b600061524c826148f7565b9050919050565b61525c81615241565b82525050565b60006040820190506152776000830185615253565b6152846020830184614b34565b9392505050565b600081519050919050565b600081905092915050565b60006152ac8261528b565b6152b68185615296565b93506152c681856020860161480f565b80840191505092915050565b60006152de82846152a1565b915081905092915050565b6000819050919050565b6152fc816152e9565b811461530757600080fd5b50565b600081519050615319816152f3565b92915050565b600060208284031215615335576153346145b6565b5b60006153438482850161530a565b91505092915050565b7f48617368206f72204964206973206e6f7420636f727265637421000000000000600082015250565b6000615382601a83614adb565b915061538d8261534c565b602082019050919050565b600060208201905081810360008301526153b181615375565b9050919050565b7f5661636865722077617320757365642100000000000000000000000000000000600082015250565b60006153ee601083614adb565b91506153f9826153b8565b602082019050919050565b6000602082019050818103600083015261541d816153e1565b9050919050565b7f566f756368657220657870697265640000000000000000000000000000000000600082015250565b600061545a600f83614adb565b915061546582615424565b602082019050919050565b600060208201905081810360008301526154898161544d565b9050919050565b7f4e487b7100000000000000000000000000000000000000000000000000000000600052601160045260246000fd5b60006154ca82614706565b91507fffffffffffffffffffffffffffffffffffffffffffffffffffffffffffffffff8214156154fd576154fc615490565b5b600182019050919050565b600061551382614706565b915061551e83614706565b92508282101561553157615530615490565b5b828203905092915050565b7f4e487b7100000000000000000000000000000000000000000000000000000000600052603160045260246000fd5b600061557682614706565b915061558183614706565b9250817fffffffffffffffffffffffffffffffffffffffffffffffffffffffffffffffff04831182151516156155ba576155b9615490565b5b828202905092915050565b60006155d082614706565b91506155db83614706565b9250827fffffffffffffffffffffffffffffffffffffffffffffffffffffffffffffffff038211156156105761560f615490565b5b828201905092915050565b600061562682614706565b9150600082141561563a57615639615490565b5b600182039050919050565b7f537472696e67733a20686578206c656e67746820696e73756666696369656e74600082015250565b600061567b602083614adb565b915061568682615645565b602082019050919050565b600060208201905081810360008301526156aa8161566e565b905091905056fea26469706673582212203c8ba20c56c5f49807a3b276f0614bb6f6885f0c8c8e4e1c0ad80f6d34cac91164736f6c634300080c0033",
  "linkReferences": {},
  "deployedLinkReferences": {}
}