{
  "_format": "hh-sol-artifact-1",
  "contractName": "Voucher",
  "sourceName": "smart_contract/contracts/Voucher.sol",
  "abi": [
    {
      "inputs": [],
      "name": "NotFoundError",
      "type": "error"
    },
    {
      "inputs": [
        {
          "internalType": "string",
          "name": "_id",
          "type": "string"
        },
        {
          "internalType": "string",
          "name": "_hash",
          "type": "string"
        },
        {
          "internalType": "uint256",
          "name": "_expire_date",
          "type": "uint256"
        },
        {
          "internalType": "address",
          "name": "_token_contract",
          "type": "address"
        },
        {
          "internalType": "uint256",
          "name": "_amount",
          "type": "uint256"
        }
      ],
      "name": "addTokenVoucher",
      "outputs": [],
      "stateMutability": "payable",
      "type": "function"
    },
    {
      "inputs": [
        {
          "internalType": "string",
          "name": "_id",
          "type": "string"
        },
        {
          "internalType": "string",
          "name": "_hash",
          "type": "string"
        },
        {
          "internalType": "uint256",
          "name": "_expire_date",
          "type": "uint256"
        }
      ],
      "name": "addVoucher",
      "outputs": [],
      "stateMutability": "payable",
      "type": "function"
    },
    {
      "inputs": [
        {
          "internalType": "uint256",
          "name": "",
          "type": "uint256"
        }
      ],
      "name": "allVouchers",
      "outputs": [
        {
          "internalType": "string",
          "name": "id",
          "type": "string"
        },
        {
          "internalType": "address",
          "name": "owner",
          "type": "address"
        },
        {
          "internalType": "string",
          "name": "hash",
          "type": "string"
        },
        {
          "internalType": "uint256",
          "name": "amount",
          "type": "uint256"
        },
        {
          "internalType": "address",
          "name": "used_by",
          "type": "address"
        },
        {
          "internalType": "uint256",
          "name": "paid_amount",
          "type": "uint256"
        },
        {
          "internalType": "uint256",
          "name": "created_date",
          "type": "uint256"
        },
        {
          "internalType": "uint256",
          "name": "expire_date",
          "type": "uint256"
        },
        {
          "internalType": "address",
          "name": "token_contract",
          "type": "address"
        }
      ],
      "stateMutability": "view",
      "type": "function"
    },
    {
      "inputs": [
        {
          "internalType": "string",
          "name": "_id",
          "type": "string"
        },
        {
          "internalType": "string",
          "name": "_hash",
          "type": "string"
        }
      ],
      "name": "claim",
      "outputs": [],
      "stateMutability": "nonpayable",
      "type": "function"
    },
    {
      "inputs": [
        {
          "internalType": "string",
          "name": "_id",
          "type": "string"
        }
      ],
      "name": "deleteVoucher",
      "outputs": [
        {
          "internalType": "bool",
          "name": "",
          "type": "bool"
        },
        {
          "internalType": "bool",
          "name": "",
          "type": "bool"
        }
      ],
      "stateMutability": "nonpayable",
      "type": "function"
    },
    {
      "inputs": [],
      "name": "getWalletVouchers",
      "outputs": [
        {
          "components": [
            {
              "internalType": "string",
              "name": "id",
              "type": "string"
            },
            {
              "internalType": "address",
              "name": "owner",
              "type": "address"
            },
            {
              "internalType": "string",
              "name": "hash",
              "type": "string"
            },
            {
              "internalType": "uint256",
              "name": "amount",
              "type": "uint256"
            },
            {
              "internalType": "address",
              "name": "used_by",
              "type": "address"
            },
            {
              "internalType": "uint256",
              "name": "paid_amount",
              "type": "uint256"
            },
            {
              "internalType": "uint256",
              "name": "created_date",
              "type": "uint256"
            },
            {
              "internalType": "uint256",
              "name": "expire_date",
              "type": "uint256"
            },
            {
              "internalType": "address",
              "name": "token_contract",
              "type": "address"
            }
          ],
          "internalType": "struct Voucher.VouchersStruct[]",
          "name": "",
          "type": "tuple[]"
        }
      ],
      "stateMutability": "view",
      "type": "function"
    },
    {
      "inputs": [
        {
          "internalType": "address",
          "name": "",
          "type": "address"
        },
        {
          "internalType": "uint256",
          "name": "",
          "type": "uint256"
        }
      ],
      "name": "userVouchers",
      "outputs": [
        {
          "internalType": "string",
          "name": "id",
          "type": "string"
        },
        {
          "internalType": "address",
          "name": "owner",
          "type": "address"
        },
        {
          "internalType": "string",
          "name": "hash",
          "type": "string"
        },
        {
          "internalType": "uint256",
          "name": "amount",
          "type": "uint256"
        },
        {
          "internalType": "address",
          "name": "used_by",
          "type": "address"
        },
        {
          "internalType": "uint256",
          "name": "paid_amount",
          "type": "uint256"
        },
        {
          "internalType": "uint256",
          "name": "created_date",
          "type": "uint256"
        },
        {
          "internalType": "uint256",
          "name": "expire_date",
          "type": "uint256"
        },
        {
          "internalType": "address",
          "name": "token_contract",
          "type": "address"
        }
      ],
      "stateMutability": "view",
      "type": "function"
    },
    {
      "inputs": [
        {
          "internalType": "string",
          "name": "_id",
          "type": "string"
        }
      ],
      "name": "voucherById",
      "outputs": [
        {
          "components": [
            {
              "internalType": "string",
              "name": "id",
              "type": "string"
            },
            {
              "internalType": "address",
              "name": "owner",
              "type": "address"
            },
            {
              "internalType": "string",
              "name": "hash",
              "type": "string"
            },
            {
              "internalType": "uint256",
              "name": "amount",
              "type": "uint256"
            },
            {
              "internalType": "address",
              "name": "used_by",
              "type": "address"
            },
            {
              "internalType": "uint256",
              "name": "paid_amount",
              "type": "uint256"
            },
            {
              "internalType": "uint256",
              "name": "created_date",
              "type": "uint256"
            },
            {
              "internalType": "uint256",
              "name": "expire_date",
              "type": "uint256"
            },
            {
              "internalType": "address",
              "name": "token_contract",
              "type": "address"
            }
          ],
          "internalType": "struct Voucher.VouchersStruct",
          "name": "",
          "type": "tuple"
        }
      ],
      "stateMutability": "view",
      "type": "function"
    }
  ],
  "bytecode": "0x608060405234801561001057600080fd5b50615258806100206000396000f3fe60806040526004361061007b5760003560e01c8063735e8eb51161004e578063735e8eb514610128578063c43538ea14610166578063cb6ab5d8146101a3578063f91ce77e146101cc5761007b565b80630d7ee9b614610080578063240d1bb81461009c57806327ca4df1146100c75780632dbaada11461010c575b600080fd5b61009a6004803603810190610095919061436b565b610211565b005b3480156100a857600080fd5b506100b161092b565b6040516100be919061465c565b60405180910390f35b3480156100d357600080fd5b506100ee60048036038101906100e9919061467e565b610c15565b60405161010399989796959493929190614713565b60405180910390f35b610126600480360381019061012191906147da565b610de3565b005b34801561013457600080fd5b5061014f600480360381019061014a919061488d565b611584565b60405161015d9291906148f1565b60405180910390f35b34801561017257600080fd5b5061018d6004803603810190610188919061488d565b611a67565b60405161019a91906149e6565b60405180910390f35b3480156101af57600080fd5b506101ca60048036038101906101c59190614a08565b611fa8565b005b3480156101d857600080fd5b506101f360048036038101906101ee9190614a80565b6127aa565b60405161020899989796959493929190614713565b60405180910390f35b60003411610254576040517f08c379a000000000000000000000000000000000000000000000000000000000815260040161024b90614b0c565b60405180910390fd5b6000610506846001805480602002602001604051908101604052809291908181526020016000905b828210156104fd5783829060005260206000209060090201604051806101200160405290816000820180546102b090614b5b565b80601f01602080910402602001604051908101604052809291908181526020018280546102dc90614b5b565b80156103295780601f106102fe57610100808354040283529160200191610329565b820191906000526020600020905b81548152906001019060200180831161030c57829003601f168201915b505050505081526020016001820160009054906101000a900473ffffffffffffffffffffffffffffffffffffffff1673ffffffffffffffffffffffffffffffffffffffff1673ffffffffffffffffffffffffffffffffffffffff16815260200160028201805461039890614b5b565b80601f01602080910402602001604051908101604052809291908181526020018280546103c490614b5b565b80156104115780601f106103e657610100808354040283529160200191610411565b820191906000526020600020905b8154815290600101906020018083116103f457829003601f168201915b50505050508152602001600382015481526020016004820160009054906101000a900473ffffffffffffffffffffffffffffffffffffffff1673ffffffffffffffffffffffffffffffffffffffff1673ffffffffffffffffffffffffffffffffffffffff1681526020016005820154815260200160068201548152602001600782015481526020016008820160009054906101000a900473ffffffffffffffffffffffffffffffffffffffff1673ffffffffffffffffffffffffffffffffffffffff1673ffffffffffffffffffffffffffffffffffffffff16815250508152602001906001019061027c565b50505050612985565b915050801561054a576040517f08c379a000000000000000000000000000000000000000000000000000000000815260040161054190614bd9565b60405180910390fd5b61055382612a7e565b15610593576040517f08c379a000000000000000000000000000000000000000000000000000000000815260040161058a90614c45565b60405180910390fd5b60006040518061012001604052808681526020013373ffffffffffffffffffffffffffffffffffffffff168152602001858152602001348152602001600073ffffffffffffffffffffffffffffffffffffffff16815260200160008152602001428152602001848152602001600073ffffffffffffffffffffffffffffffffffffffff16815250905060018190806001815401808255809150506001900390600052602060002090600902016000909190919091506000820151816000019080519060200190610664929190613fdd565b5060208201518160010160006101000a81548173ffffffffffffffffffffffffffffffffffffffff021916908373ffffffffffffffffffffffffffffffffffffffff16021790555060408201518160020190805190602001906106c8929190613fdd565b506060820151816003015560808201518160040160006101000a81548173ffffffffffffffffffffffffffffffffffffffff021916908373ffffffffffffffffffffffffffffffffffffffff16021790555060a0820151816005015560c0820151816006015560e082015181600701556101008201518160080160006101000a81548173ffffffffffffffffffffffffffffffffffffffff021916908373ffffffffffffffffffffffffffffffffffffffff16021790555050506000803373ffffffffffffffffffffffffffffffffffffffff1673ffffffffffffffffffffffffffffffffffffffff1681526020019081526020016000208190806001815401808255809150506001900390600052602060002090600902016000909190919091506000820151816000019080519060200190610806929190613fdd565b5060208201518160010160006101000a81548173ffffffffffffffffffffffffffffffffffffffff021916908373ffffffffffffffffffffffffffffffffffffffff160217905550604082015181600201908051906020019061086a929190613fdd565b506060820151816003015560808201518160040160006101000a81548173ffffffffffffffffffffffffffffffffffffffff021916908373ffffffffffffffffffffffffffffffffffffffff16021790555060a0820151816005015560c0820151816006015560e082015181600701556101008201518160080160006101000a81548173ffffffffffffffffffffffffffffffffffffffff021916908373ffffffffffffffffffffffffffffffffffffffff16021790555050505050505050565b60606000803373ffffffffffffffffffffffffffffffffffffffff1673ffffffffffffffffffffffffffffffffffffffff168152602001908152602001600020805480602002602001604051908101604052809291908181526020016000905b82821015610c0c5783829060005260206000209060090201604051806101200160405290816000820180546109bf90614b5b565b80601f01602080910402602001604051908101604052809291908181526020018280546109eb90614b5b565b8015610a385780601f10610a0d57610100808354040283529160200191610a38565b820191906000526020600020905b815481529060010190602001808311610a1b57829003601f168201915b505050505081526020016001820160009054906101000a900473ffffffffffffffffffffffffffffffffffffffff1673ffffffffffffffffffffffffffffffffffffffff1673ffffffffffffffffffffffffffffffffffffffff168152602001600282018054610aa790614b5b565b80601f0160208091040260200160405190810160405280929190818152602001828054610ad390614b5b565b8015610b205780601f10610af557610100808354040283529160200191610b20565b820191906000526020600020905b815481529060010190602001808311610b0357829003601f168201915b50505050508152602001600382015481526020016004820160009054906101000a900473ffffffffffffffffffffffffffffffffffffffff1673ffffffffffffffffffffffffffffffffffffffff1673ffffffffffffffffffffffffffffffffffffffff1681526020016005820154815260200160068201548152602001600782015481526020016008820160009054906101000a900473ffffffffffffffffffffffffffffffffffffffff1673ffffffffffffffffffffffffffffffffffffffff1673ffffffffffffffffffffffffffffffffffffffff16815250508152602001906001019061098b565b50505050905090565b60018181548110610c2557600080fd5b9060005260206000209060090201600091509050806000018054610c4890614b5b565b80601f0160208091040260200160405190810160405280929190818152602001828054610c7490614b5b565b8015610cc15780601f10610c9657610100808354040283529160200191610cc1565b820191906000526020600020905b815481529060010190602001808311610ca457829003601f168201915b5050505050908060010160009054906101000a900473ffffffffffffffffffffffffffffffffffffffff1690806002018054610cfc90614b5b565b80601f0160208091040260200160405190810160405280929190818152602001828054610d2890614b5b565b8015610d755780601f10610d4a57610100808354040283529160200191610d75565b820191906000526020600020905b815481529060010190602001808311610d5857829003601f168201915b5050505050908060030154908060040160009054906101000a900473ffffffffffffffffffffffffffffffffffffffff16908060050154908060060154908060070154908060080160009054906101000a900473ffffffffffffffffffffffffffffffffffffffff16905089565b60008111610e26576040517f08c379a0000000000000000000000000000000000000000000000000000000008152600401610e1d90614b0c565b60405180910390fd5b60006110d8866001805480602002602001604051908101604052809291908181526020016000905b828210156110cf578382906000526020600020906009020160405180610120016040529081600082018054610e8290614b5b565b80601f0160208091040260200160405190810160405280929190818152602001828054610eae90614b5b565b8015610efb5780601f10610ed057610100808354040283529160200191610efb565b820191906000526020600020905b815481529060010190602001808311610ede57829003601f168201915b505050505081526020016001820160009054906101000a900473ffffffffffffffffffffffffffffffffffffffff1673ffffffffffffffffffffffffffffffffffffffff1673ffffffffffffffffffffffffffffffffffffffff168152602001600282018054610f6a90614b5b565b80601f0160208091040260200160405190810160405280929190818152602001828054610f9690614b5b565b8015610fe35780601f10610fb857610100808354040283529160200191610fe3565b820191906000526020600020905b815481529060010190602001808311610fc657829003601f168201915b50505050508152602001600382015481526020016004820160009054906101000a900473ffffffffffffffffffffffffffffffffffffffff1673ffffffffffffffffffffffffffffffffffffffff1673ffffffffffffffffffffffffffffffffffffffff1681526020016005820154815260200160068201548152602001600782015481526020016008820160009054906101000a900473ffffffffffffffffffffffffffffffffffffffff1673ffffffffffffffffffffffffffffffffffffffff1673ffffffffffffffffffffffffffffffffffffffff168152505081526020019060010190610e4e565b50505050612985565b915050801561111c576040517f08c379a000000000000000000000000000000000000000000000000000000000815260040161111390614bd9565b60405180910390fd5b61112584612a7e565b15611165576040517f08c379a000000000000000000000000000000000000000000000000000000000815260040161115c90614c45565b60405180910390fd5b8273ffffffffffffffffffffffffffffffffffffffff166323b872dd3330856040518463ffffffff1660e01b81526004016111a293929190614c65565b6020604051808303816000875af11580156111c1573d6000803e3d6000fd5b505050506040513d601f19601f820116820180604052508101906111e59190614cc8565b1561157c5760006040518061012001604052808881526020013373ffffffffffffffffffffffffffffffffffffffff168152602001878152602001848152602001600073ffffffffffffffffffffffffffffffffffffffff168152602001600081526020014281526020018681526020018573ffffffffffffffffffffffffffffffffffffffff168152509050600181908060018154018082558091505060019003906000526020600020906009020160009091909190915060008201518160000190805190602001906112ba929190613fdd565b5060208201518160010160006101000a81548173ffffffffffffffffffffffffffffffffffffffff021916908373ffffffffffffffffffffffffffffffffffffffff160217905550604082015181600201908051906020019061131e929190613fdd565b506060820151816003015560808201518160040160006101000a81548173ffffffffffffffffffffffffffffffffffffffff021916908373ffffffffffffffffffffffffffffffffffffffff16021790555060a0820151816005015560c0820151816006015560e082015181600701556101008201518160080160006101000a81548173ffffffffffffffffffffffffffffffffffffffff021916908373ffffffffffffffffffffffffffffffffffffffff16021790555050506000803373ffffffffffffffffffffffffffffffffffffffff1673ffffffffffffffffffffffffffffffffffffffff168152602001908152602001600020819080600181540180825580915050600190039060005260206000209060090201600090919091909150600082015181600001908051906020019061145c929190613fdd565b5060208201518160010160006101000a81548173ffffffffffffffffffffffffffffffffffffffff021916908373ffffffffffffffffffffffffffffffffffffffff16021790555060408201518160020190805190602001906114c0929190613fdd565b506060820151816003015560808201518160040160006101000a81548173ffffffffffffffffffffffffffffffffffffffff021916908373ffffffffffffffffffffffffffffffffffffffff16021790555060a0820151816005015560c0820151816006015560e082015181600701556101008201518160080160006101000a81548173ffffffffffffffffffffffffffffffffffffffff021916908373ffffffffffffffffffffffffffffffffffffffff1602179055505050505b505050505050565b60008060008061183a856001805480602002602001604051908101604052809291908181526020016000905b828210156118315783829060005260206000209060090201604051806101200160405290816000820180546115e490614b5b565b80601f016020809104026020016040519081016040528092919081815260200182805461161090614b5b565b801561165d5780601f106116325761010080835404028352916020019161165d565b820191906000526020600020905b81548152906001019060200180831161164057829003601f168201915b505050505081526020016001820160009054906101000a900473ffffffffffffffffffffffffffffffffffffffff1673ffffffffffffffffffffffffffffffffffffffff1673ffffffffffffffffffffffffffffffffffffffff1681526020016002820180546116cc90614b5b565b80601f01602080910402602001604051908101604052809291908181526020018280546116f890614b5b565b80156117455780601f1061171a57610100808354040283529160200191611745565b820191906000526020600020905b81548152906001019060200180831161172857829003601f168201915b50505050508152602001600382015481526020016004820160009054906101000a900473ffffffffffffffffffffffffffffffffffffffff1673ffffffffffffffffffffffffffffffffffffffff1673ffffffffffffffffffffffffffffffffffffffff1681526020016005820154815260200160068201548152602001600782015481526020016008820160009054906101000a900473ffffffffffffffffffffffffffffffffffffffff1673ffffffffffffffffffffffffffffffffffffffff1673ffffffffffffffffffffffffffffffffffffffff1681525050815260200190600101906115b0565b50505050612985565b915091508061187e576040517f08c379a000000000000000000000000000000000000000000000000000000000815260040161187590614d41565b60405180910390fd5b3373ffffffffffffffffffffffffffffffffffffffff16600183815481106118a9576118a8614d61565b5b906000526020600020906009020160010160009054906101000a900473ffffffffffffffffffffffffffffffffffffffff1673ffffffffffffffffffffffffffffffffffffffff1614611931576040517f08c379a000000000000000000000000000000000000000000000000000000000815260040161192890614ddc565b60405180910390fd5b600073ffffffffffffffffffffffffffffffffffffffff166001838154811061195d5761195c614d61565b5b906000526020600020906009020160040160009054906101000a900473ffffffffffffffffffffffffffffffffffffffff1673ffffffffffffffffffffffffffffffffffffffff161480156119d757506000600183815481106119c3576119c2614d61565b5b906000526020600020906009020160050154145b15611a49573373ffffffffffffffffffffffffffffffffffffffff166108fc60018481548110611a0a57611a09614d61565b5b9060005260206000209060090201600301549081150290604051600060405180830381858888f19350505050158015611a47573d6000803e3d6000fd5b505b611a538533612a8b565b611a5c86613163565b935093505050915091565b611a6f614063565b6000611d21836001805480602002602001604051908101604052809291908181526020016000905b82821015611d18578382906000526020600020906009020160405180610120016040529081600082018054611acb90614b5b565b80601f0160208091040260200160405190810160405280929190818152602001828054611af790614b5b565b8015611b445780601f10611b1957610100808354040283529160200191611b44565b820191906000526020600020905b815481529060010190602001808311611b2757829003601f168201915b505050505081526020016001820160009054906101000a900473ffffffffffffffffffffffffffffffffffffffff1673ffffffffffffffffffffffffffffffffffffffff1673ffffffffffffffffffffffffffffffffffffffff168152602001600282018054611bb390614b5b565b80601f0160208091040260200160405190810160405280929190818152602001828054611bdf90614b5b565b8015611c2c5780601f10611c0157610100808354040283529160200191611c2c565b820191906000526020600020905b815481529060010190602001808311611c0f57829003601f168201915b50505050508152602001600382015481526020016004820160009054906101000a900473ffffffffffffffffffffffffffffffffffffffff1673ffffffffffffffffffffffffffffffffffffffff1673ffffffffffffffffffffffffffffffffffffffff1681526020016005820154815260200160068201548152602001600782015481526020016008820160009054906101000a900473ffffffffffffffffffffffffffffffffffffffff1673ffffffffffffffffffffffffffffffffffffffff1673ffffffffffffffffffffffffffffffffffffffff168152505081526020019060010190611a97565b50505050612985565b50905060018181548110611d3857611d37614d61565b5b906000526020600020906009020160405180610120016040529081600082018054611d6290614b5b565b80601f0160208091040260200160405190810160405280929190818152602001828054611d8e90614b5b565b8015611ddb5780601f10611db057610100808354040283529160200191611ddb565b820191906000526020600020905b815481529060010190602001808311611dbe57829003601f168201915b505050505081526020016001820160009054906101000a900473ffffffffffffffffffffffffffffffffffffffff1673ffffffffffffffffffffffffffffffffffffffff1673ffffffffffffffffffffffffffffffffffffffff168152602001600282018054611e4a90614b5b565b80601f0160208091040260200160405190810160405280929190818152602001828054611e7690614b5b565b8015611ec35780601f10611e9857610100808354040283529160200191611ec3565b820191906000526020600020905b815481529060010190602001808311611ea657829003601f168201915b50505050508152602001600382015481526020016004820160009054906101000a900473ffffffffffffffffffffffffffffffffffffffff1673ffffffffffffffffffffffffffffffffffffffff1673ffffffffffffffffffffffffffffffffffffffff1681526020016005820154815260200160068201548152602001600782015481526020016008820160009054906101000a900473ffffffffffffffffffffffffffffffffffffffff1673ffffffffffffffffffffffffffffffffffffffff1673ffffffffffffffffffffffffffffffffffffffff1681525050915050919050565b60008061225b846001805480602002602001604051908101604052809291908181526020016000905b8282101561225257838290600052602060002090600902016040518061012001604052908160008201805461200590614b5b565b80601f016020809104026020016040519081016040528092919081815260200182805461203190614b5b565b801561207e5780601f106120535761010080835404028352916020019161207e565b820191906000526020600020905b81548152906001019060200180831161206157829003601f168201915b505050505081526020016001820160009054906101000a900473ffffffffffffffffffffffffffffffffffffffff1673ffffffffffffffffffffffffffffffffffffffff1673ffffffffffffffffffffffffffffffffffffffff1681526020016002820180546120ed90614b5b565b80601f016020809104026020016040519081016040528092919081815260200182805461211990614b5b565b80156121665780601f1061213b57610100808354040283529160200191612166565b820191906000526020600020905b81548152906001019060200180831161214957829003601f168201915b50505050508152602001600382015481526020016004820160009054906101000a900473ffffffffffffffffffffffffffffffffffffffff1673ffffffffffffffffffffffffffffffffffffffff1673ffffffffffffffffffffffffffffffffffffffff1681526020016005820154815260200160068201548152602001600782015481526020016008820160009054906101000a900473ffffffffffffffffffffffffffffffffffffffff1673ffffffffffffffffffffffffffffffffffffffff1673ffffffffffffffffffffffffffffffffffffffff168152505081526020019060010190611fd1565b50505050612985565b9150915060006001838154811061227557612274614d61565b5b9060005260206000209060090201905060006122e460028660405161229a9190614e43565b602060405180830381855afa1580156122b7573d6000803e3d6000fd5b5050506040513d601f19601f820116820180604052508101906122da9190614e90565b60001c602061370c565b905082801561238557506123848183600201805461230190614b5b565b80601f016020809104026020016040519081016040528092919081815260200182805461232d90614b5b565b801561237a5780601f1061234f5761010080835404028352916020019161237a565b820191906000526020600020905b81548152906001019060200180831161235d57829003601f168201915b5050505050613948565b5b6123c4576040517f08c379a00000000000000000000000000000000000000000000000000000000081526004016123bb90614f09565b60405180910390fd5b600073ffffffffffffffffffffffffffffffffffffffff168260040160009054906101000a900473ffffffffffffffffffffffffffffffffffffffff1673ffffffffffffffffffffffffffffffffffffffff1614612457576040517f08c379a000000000000000000000000000000000000000000000000000000000815260040161244e90614f75565b60405180910390fd5b6124648260070154612a7e565b156124a4576040517f08c379a000000000000000000000000000000000000000000000000000000000815260040161249b90614fe1565b60405180910390fd5b3373ffffffffffffffffffffffffffffffffffffffff166108fc83600301549081150290604051600060405180830381858888f193505050501580156124ee573d6000803e3d6000fd5b50338260040160006101000a81548173ffffffffffffffffffffffffffffffffffffffff021916908373ffffffffffffffffffffffffffffffffffffffff160217905550816003015482600501819055506127a2826040518061012001604052908160008201805461255f90614b5b565b80601f016020809104026020016040519081016040528092919081815260200182805461258b90614b5b565b80156125d85780601f106125ad576101008083540402835291602001916125d8565b820191906000526020600020905b8154815290600101906020018083116125bb57829003601f168201915b505050505081526020016001820160009054906101000a900473ffffffffffffffffffffffffffffffffffffffff1673ffffffffffffffffffffffffffffffffffffffff1673ffffffffffffffffffffffffffffffffffffffff16815260200160028201805461264790614b5b565b80601f016020809104026020016040519081016040528092919081815260200182805461267390614b5b565b80156126c05780601f10612695576101008083540402835291602001916126c0565b820191906000526020600020905b8154815290600101906020018083116126a357829003601f168201915b50505050508152602001600382015481526020016004820160009054906101000a900473ffffffffffffffffffffffffffffffffffffffff1673ffffffffffffffffffffffffffffffffffffffff1673ffffffffffffffffffffffffffffffffffffffff1681526020016005820154815260200160068201548152602001600782015481526020016008820160009054906101000a900473ffffffffffffffffffffffffffffffffffffffff1673ffffffffffffffffffffffffffffffffffffffff1673ffffffffffffffffffffffffffffffffffffffff168152505061395e565b505050505050565b600060205281600052604060002081815481106127c657600080fd5b9060005260206000209060090201600091509150508060000180546127ea90614b5b565b80601f016020809104026020016040519081016040528092919081815260200182805461281690614b5b565b80156128635780601f1061283857610100808354040283529160200191612863565b820191906000526020600020905b81548152906001019060200180831161284657829003601f168201915b5050505050908060010160009054906101000a900473ffffffffffffffffffffffffffffffffffffffff169080600201805461289e90614b5b565b80601f01602080910402602001604051908101604052809291908181526020018280546128ca90614b5b565b80156129175780601f106128ec57610100808354040283529160200191612917565b820191906000526020600020905b8154815290600101906020018083116128fa57829003601f168201915b5050505050908060030154908060040160009054906101000a900473ffffffffffffffffffffffffffffffffffffffff16908060050154908060060154908060070154908060080160009054906101000a900473ffffffffffffffffffffffffffffffffffffffff16905089565b60008060005b8351811015612a6e57612a4b600182815481106129ab576129aa614d61565b5b906000526020600020906009020160000180546129c790614b5b565b80601f01602080910402602001604051908101604052809291908181526020018280546129f390614b5b565b8015612a405780601f10612a1557610100808354040283529160200191612a40565b820191906000526020600020905b815481529060010190602001808311612a2357829003601f168201915b505050505086613948565b15612a5d578060019250925050612a77565b80612a6790615030565b905061298b565b50600080915091505b9250929050565b6000814210159050919050565b6000806000612d7c856000808773ffffffffffffffffffffffffffffffffffffffff1673ffffffffffffffffffffffffffffffffffffffff168152602001908152602001600020805480602002602001604051908101604052809291908181526020016000905b82821015612d73578382906000526020600020906009020160405180610120016040529081600082018054612b2690614b5b565b80601f0160208091040260200160405190810160405280929190818152602001828054612b5290614b5b565b8015612b9f5780601f10612b7457610100808354040283529160200191612b9f565b820191906000526020600020905b815481529060010190602001808311612b8257829003601f168201915b505050505081526020016001820160009054906101000a900473ffffffffffffffffffffffffffffffffffffffff1673ffffffffffffffffffffffffffffffffffffffff1673ffffffffffffffffffffffffffffffffffffffff168152602001600282018054612c0e90614b5b565b80601f0160208091040260200160405190810160405280929190818152602001828054612c3a90614b5b565b8015612c875780601f10612c5c57610100808354040283529160200191612c87565b820191906000526020600020905b815481529060010190602001808311612c6a57829003601f168201915b50505050508152602001600382015481526020016004820160009054906101000a900473ffffffffffffffffffffffffffffffffffffffff1673ffffffffffffffffffffffffffffffffffffffff1673ffffffffffffffffffffffffffffffffffffffff1681526020016005820154815260200160068201548152602001600782015481526020016008820160009054906101000a900473ffffffffffffffffffffffffffffffffffffffff1673ffffffffffffffffffffffffffffffffffffffff1673ffffffffffffffffffffffffffffffffffffffff168152505081526020019060010190612af2565b50505050612985565b915091508015613156576000808573ffffffffffffffffffffffffffffffffffffffff1673ffffffffffffffffffffffffffffffffffffffff16815260200190815260200160002060016000808773ffffffffffffffffffffffffffffffffffffffff1673ffffffffffffffffffffffffffffffffffffffff16815260200190815260200160002080549050612e129190615079565b81548110612e2357612e22614d61565b5b90600052602060002090600902016000808673ffffffffffffffffffffffffffffffffffffffff1673ffffffffffffffffffffffffffffffffffffffff1681526020019081526020016000208381548110612e8157612e80614d61565b5b90600052602060002090600902016000820181600001908054612ea390614b5b565b612eae9291906140f1565b506001820160009054906101000a900473ffffffffffffffffffffffffffffffffffffffff168160010160006101000a81548173ffffffffffffffffffffffffffffffffffffffff021916908373ffffffffffffffffffffffffffffffffffffffff1602179055506002820181600201908054612f2a90614b5b565b612f359291906140f1565b50600382015481600301556004820160009054906101000a900473ffffffffffffffffffffffffffffffffffffffff168160040160006101000a81548173ffffffffffffffffffffffffffffffffffffffff021916908373ffffffffffffffffffffffffffffffffffffffff1602179055506005820154816005015560068201548160060155600782015481600701556008820160009054906101000a900473ffffffffffffffffffffffffffffffffffffffff168160080160006101000a81548173ffffffffffffffffffffffffffffffffffffffff021916908373ffffffffffffffffffffffffffffffffffffffff1602179055509050506000808573ffffffffffffffffffffffffffffffffffffffff1673ffffffffffffffffffffffffffffffffffffffff16815260200190815260200160002080548061307d5761307c6150ad565b5b6001900381819060005260206000209060090201600080820160006130a2919061417e565b6001820160006101000a81549073ffffffffffffffffffffffffffffffffffffffff02191690556002820160006130d9919061417e565b60038201600090556004820160006101000a81549073ffffffffffffffffffffffffffffffffffffffff02191690556005820160009055600682016000905560078201600090556008820160006101000a81549073ffffffffffffffffffffffffffffffffffffffff02191690555050905560019250505061315d565b6000925050505b92915050565b6000806000613418846001805480602002602001604051908101604052809291908181526020016000905b8282101561340f5783829060005260206000209060090201604051806101200160405290816000820180546131c290614b5b565b80601f01602080910402602001604051908101604052809291908181526020018280546131ee90614b5b565b801561323b5780601f106132105761010080835404028352916020019161323b565b820191906000526020600020905b81548152906001019060200180831161321e57829003601f168201915b505050505081526020016001820160009054906101000a900473ffffffffffffffffffffffffffffffffffffffff1673ffffffffffffffffffffffffffffffffffffffff1673ffffffffffffffffffffffffffffffffffffffff1681526020016002820180546132aa90614b5b565b80601f01602080910402602001604051908101604052809291908181526020018280546132d690614b5b565b80156133235780601f106132f857610100808354040283529160200191613323565b820191906000526020600020905b81548152906001019060200180831161330657829003601f168201915b50505050508152602001600382015481526020016004820160009054906101000a900473ffffffffffffffffffffffffffffffffffffffff1673ffffffffffffffffffffffffffffffffffffffff1673ffffffffffffffffffffffffffffffffffffffff1681526020016005820154815260200160068201548152602001600782015481526020016008820160009054906101000a900473ffffffffffffffffffffffffffffffffffffffff1673ffffffffffffffffffffffffffffffffffffffff1673ffffffffffffffffffffffffffffffffffffffff16815250508152602001906001019061318e565b50505050612985565b9150915080156137005760018080805490506134349190615079565b8154811061344557613444614d61565b5b90600052602060002090600902016001838154811061346757613466614d61565b5b9060005260206000209060090201600082018160000190805461348990614b5b565b6134949291906140f1565b506001820160009054906101000a900473ffffffffffffffffffffffffffffffffffffffff168160010160006101000a81548173ffffffffffffffffffffffffffffffffffffffff021916908373ffffffffffffffffffffffffffffffffffffffff160217905550600282018160020190805461351090614b5b565b61351b9291906140f1565b50600382015481600301556004820160009054906101000a900473ffffffffffffffffffffffffffffffffffffffff168160040160006101000a81548173ffffffffffffffffffffffffffffffffffffffff021916908373ffffffffffffffffffffffffffffffffffffffff1602179055506005820154816005015560068201548160060155600782015481600701556008820160009054906101000a900473ffffffffffffffffffffffffffffffffffffffff168160080160006101000a81548173ffffffffffffffffffffffffffffffffffffffff021916908373ffffffffffffffffffffffffffffffffffffffff1602179055509050506001805480613627576136266150ad565b5b60019003818190600052602060002090600902016000808201600061364c919061417e565b6001820160006101000a81549073ffffffffffffffffffffffffffffffffffffffff0219169055600282016000613683919061417e565b60038201600090556004820160006101000a81549073ffffffffffffffffffffffffffffffffffffffff02191690556005820160009055600682016000905560078201600090556008820160006101000a81549073ffffffffffffffffffffffffffffffffffffffff021916905550509055600192505050613707565b6000925050505b919050565b60606000600283600261371f91906150dc565b6137299190615136565b67ffffffffffffffff8111156137425761374161420a565b5b6040519080825280601f01601f1916602001820160405280156137745781602001600182028036833780820191505090505b5090507f3000000000000000000000000000000000000000000000000000000000000000816000815181106137ac576137ab614d61565b5b60200101907effffffffffffffffffffffffffffffffffffffffffffffffffffffffffffff1916908160001a9053507f7800000000000000000000000000000000000000000000000000000000000000816001815181106138105761380f614d61565b5b60200101907effffffffffffffffffffffffffffffffffffffffffffffffffffffffffffff1916908160001a9053506000600184600261385091906150dc565b61385a9190615136565b90505b60018111156138fa577f3031323334353637383961626364656600000000000000000000000000000000600f86166010811061389c5761389b614d61565b5b1a60f81b8282815181106138b3576138b2614d61565b5b60200101907effffffffffffffffffffffffffffffffffffffffffffffffffffffffffffff1916908160001a905350600485901c9450806138f39061518c565b905061385d565b506000841461393e576040517f08c379a000000000000000000000000000000000000000000000000000000000815260040161393590615202565b60405180910390fd5b8091505092915050565b6000806139558484613e03565b14905092915050565b600080613c558360000151600080866020015173ffffffffffffffffffffffffffffffffffffffff1673ffffffffffffffffffffffffffffffffffffffff168152602001908152602001600020805480602002602001604051908101604052809291908181526020016000905b82821015613c4c5783829060005260206000209060090201604051806101200160405290816000820180546139ff90614b5b565b80601f0160208091040260200160405190810160405280929190818152602001828054613a2b90614b5b565b8015613a785780601f10613a4d57610100808354040283529160200191613a78565b820191906000526020600020905b815481529060010190602001808311613a5b57829003601f168201915b505050505081526020016001820160009054906101000a900473ffffffffffffffffffffffffffffffffffffffff1673ffffffffffffffffffffffffffffffffffffffff1673ffffffffffffffffffffffffffffffffffffffff168152602001600282018054613ae790614b5b565b80601f0160208091040260200160405190810160405280929190818152602001828054613b1390614b5b565b8015613b605780601f10613b3557610100808354040283529160200191613b60565b820191906000526020600020905b815481529060010190602001808311613b4357829003601f168201915b50505050508152602001600382015481526020016004820160009054906101000a900473ffffffffffffffffffffffffffffffffffffffff1673ffffffffffffffffffffffffffffffffffffffff1673ffffffffffffffffffffffffffffffffffffffff1681526020016005820154815260200160068201548152602001600782015481526020016008820160009054906101000a900473ffffffffffffffffffffffffffffffffffffffff1673ffffffffffffffffffffffffffffffffffffffff1673ffffffffffffffffffffffffffffffffffffffff1681525050815260200190600101906139cb565b50505050612985565b915091508015613dfe5782600080856020015173ffffffffffffffffffffffffffffffffffffffff1673ffffffffffffffffffffffffffffffffffffffff1681526020019081526020016000208381548110613cb457613cb3614d61565b5b90600052602060002090600902016000820151816000019080519060200190613cde929190613fdd565b5060208201518160010160006101000a81548173ffffffffffffffffffffffffffffffffffffffff021916908373ffffffffffffffffffffffffffffffffffffffff1602179055506040820151816002019080519060200190613d42929190613fdd565b506060820151816003015560808201518160040160006101000a81548173ffffffffffffffffffffffffffffffffffffffff021916908373ffffffffffffffffffffffffffffffffffffffff16021790555060a0820151816005015560c0820151816006015560e082015181600701556101008201518160080160006101000a81548173ffffffffffffffffffffffffffffffffffffffff021916908373ffffffffffffffffffffffffffffffffffffffff1602179055509050505b505050565b60008083905060008390506000825190508082511015613e2257815190505b60005b81811015613f8357828181518110613e4057613e3f614d61565b5b602001015160f81c60f81b7effffffffffffffffffffffffffffffffffffffffffffffffffffffffffffff1916848281518110613e8057613e7f614d61565b5b602001015160f81c60f81b7effffffffffffffffffffffffffffffffffffffffffffffffffffffffffffff19161015613edf577fffffffffffffffffffffffffffffffffffffffffffffffffffffffffffffffff945050505050613fd7565b828181518110613ef257613ef1614d61565b5b602001015160f81c60f81b7effffffffffffffffffffffffffffffffffffffffffffffffffffffffffffff1916848281518110613f3257613f31614d61565b5b602001015160f81c60f81b7effffffffffffffffffffffffffffffffffffffffffffffffffffffffffffff19161115613f72576001945050505050613fd7565b80613f7c90615030565b9050613e25565b50815183511015613fb9577fffffffffffffffffffffffffffffffffffffffffffffffffffffffffffffffff9350505050613fd7565b815183511115613fcf5760019350505050613fd7565b600093505050505b92915050565b828054613fe990614b5b565b90600052602060002090601f01602090048101928261400b5760008555614052565b82601f1061402457805160ff1916838001178555614052565b82800160010185558215614052579182015b82811115614051578251825591602001919060010190614036565b5b50905061405f91906141be565b5090565b60405180610120016040528060608152602001600073ffffffffffffffffffffffffffffffffffffffff1681526020016060815260200160008152602001600073ffffffffffffffffffffffffffffffffffffffff168152602001600081526020016000815260200160008152602001600073ffffffffffffffffffffffffffffffffffffffff1681525090565b8280546140fd90614b5b565b90600052602060002090601f01602090048101928261411f576000855561416d565b82601f10614130578054855561416d565b8280016001018555821561416d57600052602060002091601f016020900482015b8281111561416c578254825591600101919060010190614151565b5b50905061417a91906141be565b5090565b50805461418a90614b5b565b6000825580601f1061419c57506141bb565b601f0160209004906000526020600020908101906141ba91906141be565b5b50565b5b808211156141d75760008160009055506001016141bf565b5090565b6000604051905090565b600080fd5b600080fd5b600080fd5b600080fd5b6000601f19601f8301169050919050565b7f4e487b7100000000000000000000000000000000000000000000000000000000600052604160045260246000fd5b614242826141f9565b810181811067ffffffffffffffff821117156142615761426061420a565b5b80604052505050565b60006142746141db565b90506142808282614239565b919050565b600067ffffffffffffffff8211156142a05761429f61420a565b5b6142a9826141f9565b9050602081019050919050565b82818337600083830152505050565b60006142d86142d384614285565b61426a565b9050828152602081018484840111156142f4576142f36141f4565b5b6142ff8482856142b6565b509392505050565b600082601f83011261431c5761431b6141ef565b5b813561432c8482602086016142c5565b91505092915050565b6000819050919050565b61434881614335565b811461435357600080fd5b50565b6000813590506143658161433f565b92915050565b600080600060608486031215614384576143836141e5565b5b600084013567ffffffffffffffff8111156143a2576143a16141ea565b5b6143ae86828701614307565b935050602084013567ffffffffffffffff8111156143cf576143ce6141ea565b5b6143db86828701614307565b92505060406143ec86828701614356565b9150509250925092565b600081519050919050565b600082825260208201905092915050565b6000819050602082019050919050565b600081519050919050565b600082825260208201905092915050565b60005b8381101561445c578082015181840152602081019050614441565b8381111561446b576000848401525b50505050565b600061447c82614422565b614486818561442d565b935061449681856020860161443e565b61449f816141f9565b840191505092915050565b600073ffffffffffffffffffffffffffffffffffffffff82169050919050565b60006144d5826144aa565b9050919050565b6144e5816144ca565b82525050565b6144f481614335565b82525050565b60006101208301600083015184820360008601526145188282614471565b915050602083015161452d60208601826144dc565b50604083015184820360408601526145458282614471565b915050606083015161455a60608601826144eb565b50608083015161456d60808601826144dc565b5060a083015161458060a08601826144eb565b5060c083015161459360c08601826144eb565b5060e08301516145a660e08601826144eb565b506101008301516145bb6101008601826144dc565b508091505092915050565b60006145d283836144fa565b905092915050565b6000602082019050919050565b60006145f2826143f6565b6145fc8185614401565b93508360208202850161460e85614412565b8060005b8581101561464a578484038952815161462b85826145c6565b9450614636836145da565b925060208a01995050600181019050614612565b50829750879550505050505092915050565b6000602082019050818103600083015261467681846145e7565b905092915050565b600060208284031215614694576146936141e5565b5b60006146a284828501614356565b91505092915050565b600082825260208201905092915050565b60006146c782614422565b6146d181856146ab565b93506146e181856020860161443e565b6146ea816141f9565b840191505092915050565b6146fe816144ca565b82525050565b61470d81614335565b82525050565b600061012082019050818103600083015261472e818c6146bc565b905061473d602083018b6146f5565b818103604083015261474f818a6146bc565b905061475e6060830189614704565b61476b60808301886146f5565b61477860a0830187614704565b61478560c0830186614704565b61479260e0830185614704565b6147a06101008301846146f5565b9a9950505050505050505050565b6147b7816144ca565b81146147c257600080fd5b50565b6000813590506147d4816147ae565b92915050565b600080600080600060a086880312156147f6576147f56141e5565b5b600086013567ffffffffffffffff811115614814576148136141ea565b5b61482088828901614307565b955050602086013567ffffffffffffffff811115614841576148406141ea565b5b61484d88828901614307565b945050604061485e88828901614356565b935050606061486f888289016147c5565b925050608061488088828901614356565b9150509295509295909350565b6000602082840312156148a3576148a26141e5565b5b600082013567ffffffffffffffff8111156148c1576148c06141ea565b5b6148cd84828501614307565b91505092915050565b60008115159050919050565b6148eb816148d6565b82525050565b600060408201905061490660008301856148e2565b61491360208301846148e2565b9392505050565b60006101208301600083015184820360008601526149388282614471565b915050602083015161494d60208601826144dc565b50604083015184820360408601526149658282614471565b915050606083015161497a60608601826144eb565b50608083015161498d60808601826144dc565b5060a08301516149a060a08601826144eb565b5060c08301516149b360c08601826144eb565b5060e08301516149c660e08601826144eb565b506101008301516149db6101008601826144dc565b508091505092915050565b60006020820190508181036000830152614a00818461491a565b905092915050565b60008060408385031215614a1f57614a1e6141e5565b5b600083013567ffffffffffffffff811115614a3d57614a3c6141ea565b5b614a4985828601614307565b925050602083013567ffffffffffffffff811115614a6a57614a696141ea565b5b614a7685828601614307565b9150509250929050565b60008060408385031215614a9757614a966141e5565b5b6000614aa5858286016147c5565b9250506020614ab685828601614356565b9150509250929050565b7f596f752073686f756c642061747461636820736f6d65204465706f7369740000600082015250565b6000614af6601e836146ab565b9150614b0182614ac0565b602082019050919050565b60006020820190508181036000830152614b2581614ae9565b9050919050565b7f4e487b7100000000000000000000000000000000000000000000000000000000600052602260045260246000fd5b60006002820490506001821680614b7357607f821691505b60208210811415614b8757614b86614b2c565b5b50919050565b7f566f756368657220776974682074686973206964207761732061646465640000600082015250565b6000614bc3601e836146ab565b9150614bce82614b8d565b602082019050919050565b60006020820190508181036000830152614bf281614bb6565b9050919050565b7f57726f6e67206578706972655f64617465000000000000000000000000000000600082015250565b6000614c2f6011836146ab565b9150614c3a82614bf9565b602082019050919050565b60006020820190508181036000830152614c5e81614c22565b9050919050565b6000606082019050614c7a60008301866146f5565b614c8760208301856146f5565b614c946040830184614704565b949350505050565b614ca5816148d6565b8114614cb057600080fd5b50565b600081519050614cc281614c9c565b92915050565b600060208284031215614cde57614cdd6141e5565b5b6000614cec84828501614cb3565b91505092915050565b7f566f7563686572206e6f7420666f756e64000000000000000000000000000000600082015250565b6000614d2b6011836146ab565b9150614d3682614cf5565b602082019050919050565b60006020820190508181036000830152614d5a81614d1e565b9050919050565b7f4e487b7100000000000000000000000000000000000000000000000000000000600052603260045260246000fd5b7f596f7520617265206e6f7420746865206f776e65722e00000000000000000000600082015250565b6000614dc66016836146ab565b9150614dd182614d90565b602082019050919050565b60006020820190508181036000830152614df581614db9565b9050919050565b600081519050919050565b600081905092915050565b6000614e1d82614dfc565b614e278185614e07565b9350614e3781856020860161443e565b80840191505092915050565b6000614e4f8284614e12565b915081905092915050565b6000819050919050565b614e6d81614e5a565b8114614e7857600080fd5b50565b600081519050614e8a81614e64565b92915050565b600060208284031215614ea657614ea56141e5565b5b6000614eb484828501614e7b565b91505092915050565b7f48617368206f72204964206973206e6f7420636f727265637421000000000000600082015250565b6000614ef3601a836146ab565b9150614efe82614ebd565b602082019050919050565b60006020820190508181036000830152614f2281614ee6565b9050919050565b7f5661636865722077617320757365642100000000000000000000000000000000600082015250565b6000614f5f6010836146ab565b9150614f6a82614f29565b602082019050919050565b60006020820190508181036000830152614f8e81614f52565b9050919050565b7f566f756368657220657870697265640000000000000000000000000000000000600082015250565b6000614fcb600f836146ab565b9150614fd682614f95565b602082019050919050565b60006020820190508181036000830152614ffa81614fbe565b9050919050565b7f4e487b7100000000000000000000000000000000000000000000000000000000600052601160045260246000fd5b600061503b82614335565b91507fffffffffffffffffffffffffffffffffffffffffffffffffffffffffffffffff82141561506e5761506d615001565b5b600182019050919050565b600061508482614335565b915061508f83614335565b9250828210156150a2576150a1615001565b5b828203905092915050565b7f4e487b7100000000000000000000000000000000000000000000000000000000600052603160045260246000fd5b60006150e782614335565b91506150f283614335565b9250817fffffffffffffffffffffffffffffffffffffffffffffffffffffffffffffffff048311821515161561512b5761512a615001565b5b828202905092915050565b600061514182614335565b915061514c83614335565b9250827fffffffffffffffffffffffffffffffffffffffffffffffffffffffffffffffff0382111561518157615180615001565b5b828201905092915050565b600061519782614335565b915060008214156151ab576151aa615001565b5b600182039050919050565b7f537472696e67733a20686578206c656e67746820696e73756666696369656e74600082015250565b60006151ec6020836146ab565b91506151f7826151b6565b602082019050919050565b6000602082019050818103600083015261521b816151df565b905091905056fea264697066735822122007155899b640be3bd4b929671a83d247528aa8872874d785bd8fb18266e2860364736f6c634300080c0033",
  "linkReferences": {},
  "deployedLinkReferences": {}
}